{
  "contractName": "Mortal",
  "abi": [
    {
      "constant": false,
      "inputs": [],
      "name": "destroy",
      "outputs": [],
      "payable": false,
      "stateMutability": "nonpayable",
      "type": "function"
    }
  ],
  "bytecode": "0x6080604052336000806101000a81548173ffffffffffffffffffffffffffffffffffffffff021916908373ffffffffffffffffffffffffffffffffffffffff1602179055506101ad806100536000396000f300608060405260043610610041576000357c0100000000000000000000000000000000000000000000000000000000900463ffffffff16806383197ef014610046575b600080fd5b34801561005257600080fd5b5061005b61005d565b005b6000809054906101000a900473ffffffffffffffffffffffffffffffffffffffff1673ffffffffffffffffffffffffffffffffffffffff163373ffffffffffffffffffffffffffffffffffffffff16141515610147576040517f08c379a000000000000000000000000000000000000000000000000000000000815260040180806020018281038252602e8152602001807f6f6e6c792074686520636f6e7472616374206f776e65722063616e2063616c6c81526020017f20746869732066756e6374696f6e00000000000000000000000000000000000081525060400191505060405180910390fd5b6000809054906101000a900473ffffffffffffffffffffffffffffffffffffffff1673ffffffffffffffffffffffffffffffffffffffff16ff00a165627a7a72305820b09e90bd27589c14049d7c0a303a177dfc704ac9269104bc4c36b1f05a8ad4830029",
  "source": "pragma solidity ^0.4.22;\r\n\r\ncontract Owned{\r\n\r\n  address owner;\r\n\r\n  constructor(){\r\n    owner = msg.sender;\r\n  }\r\n\r\n  modifier onlyOwner(){\r\n    require(msg.sender == owner,\"only the contract owner can call this function\");\r\n    _;\r\n  }\r\n}\r\n\r\ncontract Mortal is Owned{\r\n  function destroy() public onlyOwner{\r\n    selfdestruct(owner);\r\n  }\r\n}\r\n\r\ncontract Faucet is Mortal{\r\n\r\n  event Withdrawal(address indexed to, uint amount);\r\n  event Deposit(address indexed from, uint amout);\r\n\r\n  function withdraw(uint withdraw_amount) public{\r\n    require(withdraw_amount <= 100000000000000000);\r\n    require(address(this).balance >= withdraw_amount,\"Insufficient balance for withdraw request\");\r\n    msg.sender.transfer(withdraw_amount);\r\n    emit Withdrawal(msg.sender,withdraw_amount);\r\n  }\r\n\r\n  function () public payable{\r\n    emit Deposit(msg.sender,msg.value);\r\n  }\r\n\r\n}\r\n",
  "sourcePath": "D:\\sth\\learn_solidity\\contracts\\Faucet.sol",
  "compiler": {
    "name": "solc",
    "version": "0.4.24+commit.e67f0147.Emscripten.clang"
  },
  "schemaVersion": "2.0.1",
  "updatedAt": "2018-08-02T18:10:32.076Z"
}